:100000000C9462000C948A000C948A000C948A0070
:100010000C948A000C948A000C948A000C948A0038
:100020000C948A000C948A000C948A000C948A0028
:100030000C948A000C948A000C948A000C948A0018
:100040000C9468090C948A000C941F070C946D079B
:100050000C948A000C948A000C948A000C948A00F8
:100060000C948A000C948A000000000024002700F1
:100070002A0000000000250028002B0000000000DE
:1000800023002600290004040404040404040202DA
:100090000202020203030303030301020408102007
:1000A0004080010204081020010204081020000012
:1000B0000007000201000003040600000000000029
:1000C0000000D90811241FBECFEFD8E0DEBFCDBF9E
:1000D00011E0A0E0B1E0E6E8F6E102C005900D9283
:1000E000AC31B107D9F711E0ACE1B1E001C01D922C
:1000F000AF3CB107E1F710E0C4ECD0E004C02297B8
:10010000FE010E943D0BC23CD107C9F70E942F0996
:100110000C94410B0C9400000F931F93CF93DF932B
:1001200000E010E066C6C0E0D0E08091040160E02D
:100130000E94830A809108016091060140E020E05E
:100140000E94D70A809108016091060140E020E4F6
:100150000E94D70A809108016091060141E027E0E2
:100160000E94D70A809108016091060140E027E0D3
:100170000E94D70A8091040161E00E94830A609185
:100180000A0170910B01882777FD8095982F0E94B6
:10019000B0098091040160E00E94830A8091080107
:1001A0006091060140E020E00E94D70A809108019A
:1001B0006091060140E020E20E94D70A8091080188
:1001C0006091060140E028E10E94D70A8091080171
:1001D0006091060140E028E00E94D70A8091040166
:1001E00061E00E94830A60910A0170910B018827E7
:1001F00077FD8095982F0E94B0098091040160E0FE
:100200000E94830A809108016091060140E020E08D
:100210000E94D70A809108016091060140E020E128
:100220000E94D70A809108016091060140E024E015
:100230000E94D70A809108016091060140E020E108
:100240000E94D70A8091040161E00E94830A6091B4
:100250000A0170910B01882777FD8095982F0E94E5
:10026000B0098091040160E00E94830A8091080136
:100270006091060140E020E00E94D70A80910801C9
:100280006091060140E028E00E94D70A80910801B1
:100290006091060140E028EB0E94D70A8091080196
:1002A0006091060140E02CE10E94D70A8091040190
:1002B00061E00E94830A60910A0170910B01882716
:1002C00077FD8095982F0E94B0098091040160E02D
:1002D0000E94830A809108016091060140E020E0BD
:1002E0000E94D70A809108016091060140E024E055
:1002F0000E94D70A809108016091060140E024E83D
:100300000E94D70A809108016091060140E026E230
:100310000E94D70A8091040161E00E94830A6091E3
:100320000A0170910B01882777FD8095982F0E9414
:10033000B0098091040160E00E94830A8091080165
:100340006091060140E020E00E94D70A80910801F8
:100350006091060140E022E00E94D70A80910801E6
:100360006091060140E024E40E94D70A80910801D0
:100370006091060140E026E20E94D70A80910401C4
:1003800061E00E94830A60910A0170910B01882745
:1003900077FD8095982F0E94B0098091040160E05C
:1003A0000E94830A809108016091060140E020E0EC
:1003B0000E94D70A809108016091060140E021E087
:1003C0000E94D70A809108016091060140E028EF61
:1003D0000E94D70A809108016091060140E028E15F
:1003E0000E94D70A8091040161E00E94830A609113
:1003F0000A0170910B01882777FD8095982F0E9444
:10040000B0098091040160E00E94830A8091080194
:100410006091060140E020E80E94D70A809108011F
:100420006091060140E020E00E94D70A8091080117
:100430006091060140E020E10E94D70A8091080106
:100440006091060140E02CE00E94D70A80910401EF
:1004500061E00E94830A60910A0170910B01882774
:1004600077FD8095982F0E94B0098091040160E08B
:100470000E94830A809108016091060140E020E417
:100480000E94D70A809108016091060140E020E0B7
:100490000E94D70A809108016091060140E020E2A5
:1004A0000E94D70A809108016091060140E023E193
:1004B0000E94D70A8091040161E00E94830A609142
:1004C0000A0170910B01882777FD8095982F0E9473
:1004D000B0098091040160E00E94830A80910801C4
:1004E0006091060140E020E20E94D70A8091080155
:1004F0006091060140E020E00E94D70A8091080147
:100500006091060140E020E90E94D70A809108012D
:100510006091060140E021E20E94D70A8091040127
:1005200061E00E94830A60910A0170910B018827A3
:1005300077FD8095982F0E94B0098091040160E0BA
:100540000E94830A809108016091060140E020E149
:100550000E94D70A809108016091060140E020E0E6
:100560000E94D70A809108016091060140E020EFC7
:100570000E94D70A809108016091060140E021E2C3
:100580000E94D70A8091040161E00E94830A609171
:100590000A0170910B01882777FD8095982F0E94A2
:1005A000B0098091040160E00E94830A80910801F3
:1005B0006091060140E028E00E94D70A809108017E
:1005C0006091060140E020E00E94D70A8091080176
:1005D0006091060140E020EB0E94D70A809108015B
:1005E0006091060140E021E10E94D70A8091040158
:1005F00061E00E94830A60910A0170910B018827D3
:1006000077FD8095982F0E94B0098091040160E0E9
:100610000E94830A809108016091060140E024E075
:100620000E94D70A809108016091060140E020E015
:100630000E94D70A809108016091060140E020E7FE
:100640000E94D70A809108016091060140E020E1F4
:100650000E94D70A8091040161E00E94830A6091A0
:100660000A0170910B01882777FD8095982F0E94D1
:10067000B0098091040160E00E94830A8091080122
:100680006091060140E022E00E94D70A80910801B3
:100690006091060140E020E00E94D70A80910801A5
:1006A0006091060140E020E20E94D70A8091080193
:1006B0006091060140E028E00E94D70A8091040181
:1006C00061E00E94830A60910A0170910B01882702
:1006D00077FD8095982F0E94B0098091040160E019
:1006E0000E94830A809108016091060140E021E0A8
:1006F0000E94D70A809108016091060140E020E045
:100700000E94D70A809108016091060140E020EE26
:100710000E94D70A809108016091060140E02FE015
:100720000E94D70A8091040161E00E94830A6091CF
:100730000A0170910B01882777FD8095982F0E9400
:10074000B0092196CD30D10509F0EFCCC0E0D0E062
:100750008091040160E00E94830A80910801609109
:10076000060140E020E00E94D70A809108016091D4
:10077000060140E020E80E94D70A809108016091BC
:10078000060140E020EC0E94D70A809108016091A8
:10079000060140E027E00E94D70A8091040161E051
:1007A0000E94830A60910A0170910B01882777FDEE
:1007B0008095982F0E94B0098091040160E00E940A
:1007C000830A809108016091060140E020E00E94C8
:1007D000D70A809108016091060140E020E40E9460
:1007E000D70A809108016091060140E028E30E9449
:1007F000D70A809108016091060140E028E00E943C
:10080000D70A8091040161E00E94830A60910A0185
:1008100070910B01882777FD8095982F0E94B00971
:100820008091040160E00E94830A80910801609138
:10083000060140E020E00E94D70A80910801609103
:10084000060140E020E20E94D70A809108016091F1
:10085000060140E024E00E94D70A809108016091DF
:10086000060140E020E10E94D70A8091040161E086
:100870000E94830A60910A0170910B01882777FD1D
:100880008095982F0E94B0098091040160E00E9439
:10089000830A809108016091060140E020E00E94F7
:1008A000D70A809108016091060140E020E10E9492
:1008B000D70A809108016091060140E028EB0E9470
:1008C000D70A809108016091060140E02CE10E9466
:1008D000D70A8091040161E00E94830A60910A01B5
:1008E00070910B01882777FD8095982F0E94B009A1
:1008F0008091040160E00E94830A80910801609168
:10090000060140E020E00E94D70A80910801609132
:10091000060140E028E00E94D70A8091080160911A
:10092000060140E024E80E94D70A80910801609106
:10093000060140E026E20E94D70A8091040161E0AE
:100940000E94830A60910A0170910B01882777FD4C
:100950008095982F0E94B0098091040160E00E9468
:10096000830A809108016091060140E020E00E9426
:10097000D70A809108016091060140E024E00E94BE
:10098000D70A809108016091060140E024E40E94AA
:10099000D70A809108016091060140E026E20E949A
:1009A000D70A8091040161E00E94830A60910A01E4
:1009B00070910B01882777FD8095982F0E94B009D0
:1009C0008091040160E00E94830A80910801609197
:1009D000060140E020E00E94D70A80910801609162
:1009E000060140E022E00E94D70A80910801609150
:1009F000060140E028EF0E94D70A8091080160912B
:100A0000060140E028E10E94D70A8091040161E0DC
:100A10000E94830A60910A0170910B01882777FD7B
:100A20008095982F0E94B0098091040160E00E9497
:100A3000830A809108016091060140E020E00E9455
:100A4000D70A809108016091060140E021E00E94F0
:100A5000D70A809108016091060140E020E10E94E0
:100A6000D70A809108016091060140E02CE10E94C4
:100A7000D70A8091040161E00E94830A60910A0113
:100A800070910B01882777FD8095982F0E94B009FF
:100A90008091040160E00E94830A809108016091C6
:100AA000060140E020E80E94D70A80910801609189
:100AB000060140E020E00E94D70A80910801609181
:100AC000060140E028E30E94D70A80910801609166
:100AD000060140E023E60E94D70A8091040161E00C
:100AE0000E94830A60910A0170910B01882777FDAB
:100AF0008095982F0E94B0098091040160E00E94C7
:100B0000830A809108016091060140E020E40E9480
:100B1000D70A809108016091060140E020E00E9420
:100B2000D70A809108016091060140E024E90E9403
:100B3000D70A809108016091060140E021E80E94F7
:100B4000D70A8091040161E00E94830A60910A0142
:100B500070910B01882777FD8095982F0E94B0092E
:100B60008091040160E00E94830A809108016091F5
:100B7000060140E020E20E94D70A809108016091BE
:100B8000060140E020E00E94D70A809108016091B0
:100B9000060140E022EF0E94D70A8091080160918F
:100BA000060140E023E80E94D70A8091040161E039
:100BB0000E94830A60910A0170910B01882777FDDA
:100BC0008095982F0E94B0098091040160E00E94F6
:100BD000830A809108016091060140E020E10E94B3
:100BE000D70A809108016091060140E020E00E9450
:100BF000D70A809108016091060140E02AE60E9430
:100C0000D70A809108016091060140E02FE40E941C
:100C1000D70A8091040161E00E94830A60910A0171
:100C200070910B01882777FD8095982F0E94B0095D
:100C30008091040160E00E94830A80910801609124
:100C4000060140E028E00E94D70A809108016091E7
:100C5000060140E020E00E94D70A809108016091DF
:100C6000060140E024EE0E94D70A809108016091BD
:100C7000060140E02FE30E94D70A8091040161E061
:100C80000E94830A60910A0170910B01882777FD09
:100C90008095982F0E94B0098091040160E00E9425
:100CA000830A809108016091060140E024E00E94DF
:100CB000D70A809108016091060140E020E00E947F
:100CC000D70A809108016091060140E024EC0E945F
:100CD000D70A809108016091060140E02FE40E944C
:100CE000D70A8091040161E00E94830A60910A01A1
:100CF00070910B01882777FD8095982F0E94B0098D
:100D00008091040160E00E94830A80910801609153
:100D1000060140E022E00E94D70A8091080160911C
:100D2000060140E020E00E94D70A8091080160910E
:100D3000060140E028E80E94D70A809108016091EE
:100D4000060140E024E40E94D70A8091040161E09A
:100D50000E94830A60910A0170910B01882777FD38
:100D60008095982F0E94B0098091040160E00E9454
:100D7000830A809108016091060140E021E00E9411
:100D8000D70A809108016091060140E020E00E94AE
:100D9000D70A809108016091060140E020E70E9497
:100DA000D70A809108016091060140E028E30E9483
:100DB000D70A8091040161E00E94830A60910A01D0
:100DC00070910B01882777FD8095982F0E94B009BC
:100DD0002196CD30D10509F0BBCC60910201709114
:100DE0000301882777FD8095982F0E94B0090F5F37
:100DF0001F4F8091000190910101081719070CF411
:100E000092C9DF91CF911F910F91089584EA91E0EB
:100E100040E855E260E070E00E94A807809104017C
:100E200061E00E94440A8091060161E00E94440A48
:100E30008091080161E00E94440A089508951F927C
:100E40000F920FB60F9211242F933F934F938F93CE
:100E50009F93EF93FF938091C00082FD1DC040914E
:100E6000C60020915C0130915D012F5F3F4F2F73D1
:100E7000307080915E0190915F012817390771F001
:100E8000E0915C01F0915D01E45EFE4F40833093A0
:100E90005D0120935C0102C08091C600FF91EF913B
:100EA0009F918F914F913F912F910F900FBE0F9077
:100EB0001F901895E091B001F091B101E05CFF4FF7
:100EC0008191919120813181821B930B8F7390705E
:100ED000892B11F00E941E0708951F920F920FB6E2
:100EE0000F9211242F933F938F939F93EF93FF9330
:100EF0002091A0013091A1018091A2019091A301C4
:100F00002817390731F48091C1008F7D8093C1008B
:100F100014C0E091A201F091A301E05AFE4F20819C
:100F20008091A2019091A30101968F73907090938C
:100F3000A3018093A2012093C600FF91EF919F919E
:100F40008F913F912F910F900FBE0F901F9018958A
:100F5000AF92BF92DF92EF92FF920F931F93CF93C6
:100F6000DF93EC017A018B01DD24403081EE5807DC
:100F700080E0680780E0780711F0DD24D39491E0E9
:100F8000A92EB12CEC89FD89DD2069F0C50108A0EE
:100F900002C0880F991F0A94E2F7808360E079E02D
:100FA0008DE390E005C0108260E874E88EE190E087
:100FB000A80197010E94190B215030404040504039
:100FC000569547953795279580E12030380720F0D2
:100FD000DD2011F0DD24D6CFE889F9893083EA8954
:100FE000FB89208319A2EE89FF89408121E030E04E
:100FF000C9010C8C02C0880F991F0A94E2F7482B94
:101000004083EE89FF894081C9010D8C02C0880FA1
:10101000991F0A94E2F7482B4083EE89FF894081AB
:10102000C9010E8C02C0880F991F0A94E2F7482B61
:101030004083EE89FF8980810F8C02C0220F331F0D
:101040000A94E2F7209528232083DF91CF911F9106
:101050000F91FF90EF90DF90BF90AF900895DC016B
:101060001C96ED91FC911D97E05CFF4F2191319111
:1010700080819181281B390B2F733070C90108952D
:10108000DC011C96ED91FC911D97E05CFF4F2081E7
:101090003181E054F040DF01AE5BBF4F8D919C91F8
:1010A00011972817390719F42FEF3FEF07C08D91DB
:1010B0009C91E80FF91F8081282F30E0C901089525
:1010C000DC011C96ED91FC911D97E05CFF4F2081A7
:1010D0003181E054F040DF01AE5BBF4F8D919C91B8
:1010E00011972817390719F42FEF3FEF10C08D9192
:1010F0009C911197E80FF91F20818D919C91119778
:1011000001968F73907011969C938E9330E0C90175
:101110000895DC0191968C919197882339F054962B
:10112000ED91FC915597808186FFF9CF91961C92A5
:101130000895CF93DF93EC01EE85FF85E05CFF4FD0
:1011400020813181E054F0402F5F3F4F2F7330708A
:10115000DF01AE5BBF4F8D919C9111972817390726
:10116000D1F3E05CFF4F80819181E054F040E80FC3
:10117000F91F6083EE85FF85E05CFF4F318320839C
:10118000EE89FF89208181E090E00F8C02C0880FFA
:10119000991F0A94E2F7282B208381E089A3EC8928
:1011A000FD8980818064808381E090E0DF91CF9130
:1011B00008951092A7011092A60188EE93E0A0E096
:1011C000B0E08093A8019093A901A093AA01B093E5
:1011D000AB0180E191E09093A5018093A4018CE1A3
:1011E00091E09093B1018093B00180E691E09093FB
:1011F000B3018093B20185EC90E09093B5018093A8
:10120000B40184EC90E09093B7018093B60180EC38
:1012100090E09093B9018093B80181EC90E09093B5
:10122000BB018093BA0182EC90E09093BD01809362
:10123000BC0186EC90E09093BF018093BE0184E0F6
:101240008093C00183E08093C10187E08093C20155
:1012500085E08093C30181E08093C4010895CF931A
:10126000DF930E94090A0E940607CAE5D7E00E94A0
:101270008C002097E1F30E945A07F9CFCF92DF92BA
:10128000EF92FF920F931F93CF93DF937C016B013B
:101290008A01C0E0D0E00FC0D6016D916D01D70189
:1012A000ED91FC910190F081E02DC7010995C80FE7
:1012B000D91F015010400115110571F7CE01DF91C2
:1012C000CF911F910F91FF90EF90DF90CF900895F5
:1012D0001F920F920FB60F9211242F933F938F936B
:1012E0009F93AF93BF938091CA019091CB01A0913E
:1012F000CC01B091CD013091CE010196A11DB11D5F
:10130000232F2D5F2D3720F02D570196A11DB11DE4
:101310002093CE018093CA019093CB01A093CC017E
:10132000B093CD018091C6019091C701A091C801F1
:10133000B091C9010196A11DB11D8093C601909382
:10134000C701A093C801B093C901BF91AF919F910C
:101350008F913F912F910F900FBE0F901F90189576
:101360009B01AC017FB7F8948091C6019091C701B1
:10137000A091C801B091C90166B5A89B05C06F3F97
:1013800019F00196A11DB11D7FBFBA2FA92F982F6B
:101390008827860F911DA11DB11D62E0880F991F3E
:1013A000AA1FBB1F6A95D1F7BC012DC0FFB7F894E7
:1013B0008091C6019091C701A091C801B091C90167
:1013C000E6B5A89B05C0EF3F19F00196A11DB11D20
:1013D000FFBFBA2FA92F982F88278E0F911DA11D0F
:1013E000B11DE2E0880F991FAA1FBB1FEA95D1F734
:1013F000861B970B885E9340C8F2215030404040D6
:10140000504068517C4F211531054105510571F659
:101410000895789484B5826084BD84B5816084BD6C
:1014200085B5826085BD85B5816085BDEEE6F0E05D
:10143000808181608083E1E8F0E0108280818260B9
:101440008083808181608083E0E8F0E0808181603A
:101450008083E1EBF0E0808184608083E0EBF0E06A
:10146000808181608083EAE7F0E08081846080830E
:1014700080818260808380818160808380818068B8
:1014800080831092C1000895CF93DF93482F50E0DE
:10149000CA0186569F4FFC0134914A575F4FFA01AB
:1014A0008491882369F190E0880F991FFC01E85925
:1014B000FF4FA591B491FC01EE58FF4FC591D49117
:1014C000662351F42FB7F8948C91932F909589232C
:1014D0008C93888189230BC0623061F42FB7F89414
:1014E0008C91932F909589238C938881832B88836B
:1014F0002FBF06C09FB7F8948C91832B8C939FBF0E
:10150000DF91CF910895482F50E0CA0182559F4F37
:10151000FC012491CA0186569F4FFC0194914A57C1
:101520005F4FFA013491332309F440C0222351F173
:10153000233071F0243028F42130A1F0223011F54D
:1015400014C02630B1F02730C1F02430D9F404C0E3
:10155000809180008F7703C0809180008F7D809381
:10156000800010C084B58F7702C084B58F7D84BDA4
:1015700009C08091B0008F7703C08091B0008F7D4B
:101580008093B000E32FF0E0EE0FFF1FEE58FF4F07
:10159000A591B4912FB7F894662321F48C9190957E
:1015A000892302C08C91892B8C932FBF0895BF9201
:1015B000CF92DF92EF92FF920F931F93CF93DF931F
:1015C000E82EF62EB42EC7E0D0E0022F10E087E020
:1015D000C82ED12CBB2059F4B6016C1B7D0BC80161
:1015E00002C0959587956A95E2F7BC0107C0B801DE
:1015F0000C2E02C0759567950A94E2F761708E2DE6
:101600000E94830A8F2D61E00E94830A8F2D60E083
:101610000E94830A21979FEFCF3FD907D9F6DF9128
:10162000CF911F910F91FF90EF90DF90CF90BF90DF
:101630000895A1E21A2EAA1BBB1BFD010DC0AA1F13
:10164000BB1FEE1FFF1FA217B307E407F50720F02B
:10165000A21BB30BE40BF50B661F771F881F991FA6
:101660001A9469F760957095809590959B01AC01EF
:10167000BD01CF010895EE0FFF1F0590F491E02DFD
:061680000994F894FFCF6D
:101686000A00050008000C000B0001000000000025
:0C16960099083E092F08600840088908E8
:00000001FF
